{
  "contractName": "Casino",
  "abi": [
    {
      "constant": true,
      "inputs": [],
      "name": "numberOfBets",
      "outputs": [
        {
          "name": "",
          "type": "uint256"
        }
      ],
      "payable": false,
      "stateMutability": "view",
      "type": "function"
    },
    {
      "constant": true,
      "inputs": [
        {
          "name": "",
          "type": "address"
        }
      ],
      "name": "playerInfo",
      "outputs": [
        {
          "name": "amountBet",
          "type": "uint256"
        },
        {
          "name": "numberSelected",
          "type": "uint256"
        }
      ],
      "payable": false,
      "stateMutability": "view",
      "type": "function"
    },
    {
      "constant": true,
      "inputs": [],
      "name": "owner",
      "outputs": [
        {
          "name": "",
          "type": "address"
        }
      ],
      "payable": false,
      "stateMutability": "view",
      "type": "function"
    },
    {
      "constant": true,
      "inputs": [],
      "name": "minimumBet",
      "outputs": [
        {
          "name": "",
          "type": "uint256"
        }
      ],
      "payable": false,
      "stateMutability": "view",
      "type": "function"
    },
    {
      "constant": true,
      "inputs": [],
      "name": "maxAmountOfBets",
      "outputs": [
        {
          "name": "",
          "type": "uint256"
        }
      ],
      "payable": false,
      "stateMutability": "view",
      "type": "function"
    },
    {
      "constant": true,
      "inputs": [
        {
          "name": "",
          "type": "uint256"
        }
      ],
      "name": "players",
      "outputs": [
        {
          "name": "",
          "type": "address"
        }
      ],
      "payable": false,
      "stateMutability": "view",
      "type": "function"
    },
    {
      "constant": true,
      "inputs": [],
      "name": "totalBet",
      "outputs": [
        {
          "name": "",
          "type": "uint256"
        }
      ],
      "payable": false,
      "stateMutability": "view",
      "type": "function"
    },
    {
      "inputs": [
        {
          "name": "_minimumBet",
          "type": "uint256"
        }
      ],
      "payable": false,
      "stateMutability": "nonpayable",
      "type": "constructor"
    },
    {
      "payable": true,
      "stateMutability": "payable",
      "type": "fallback"
    },
    {
      "constant": false,
      "inputs": [],
      "name": "kill",
      "outputs": [],
      "payable": false,
      "stateMutability": "nonpayable",
      "type": "function"
    },
    {
      "constant": true,
      "inputs": [
        {
          "name": "player",
          "type": "address"
        }
      ],
      "name": "checkPlayerExists",
      "outputs": [
        {
          "name": "",
          "type": "bool"
        }
      ],
      "payable": false,
      "stateMutability": "view",
      "type": "function"
    },
    {
      "constant": false,
      "inputs": [
        {
          "name": "numberSelected",
          "type": "uint256"
        }
      ],
      "name": "bet",
      "outputs": [],
      "payable": true,
      "stateMutability": "payable",
      "type": "function"
    },
    {
      "constant": false,
      "inputs": [],
      "name": "generateNumberWinner",
      "outputs": [],
      "payable": false,
      "stateMutability": "nonpayable",
      "type": "function"
    },
    {
      "constant": false,
      "inputs": [],
      "name": "resetData",
      "outputs": [],
      "payable": false,
      "stateMutability": "nonpayable",
      "type": "function"
    },
    {
      "constant": false,
      "inputs": [
        {
          "name": "numberWinner",
          "type": "uint256"
        }
      ],
      "name": "distributePrizes",
      "outputs": [],
      "payable": false,
      "stateMutability": "nonpayable",
      "type": "function"
    }
  ],
  "bytecode": "0x6080604052606460045534801561001557600080fd5b50604051602080610a7583398101806040528101908080519060200190929190505050336000806101000a81548173ffffffffffffffffffffffffffffffffffffffff021916908373ffffffffffffffffffffffffffffffffffffffff16021790555060008114151561008a57806001819055505b506109db8061009a6000396000f3006080604052600436106100c5576000357c0100000000000000000000000000000000000000000000000000000000900463ffffffff1680630a50e361146100c75780632ca8c6d3146100de5780634081d9161461010957806341c0e1b514610164578063478c4e0e1461017b5780634b114691146101925780636ca3fc3b146101f05780637365870b1461021d5780638da5cb5b1461023d578063c38a8afd14610294578063e08a96cd146102bf578063f71d96cb146102ea578063fe5e185314610357575b005b3480156100d357600080fd5b506100dc610382565b005b3480156100ea57600080fd5b506100f36103a2565b6040518082815260200191505060405180910390f35b34801561011557600080fd5b5061014a600480360381019080803573ffffffffffffffffffffffffffffffffffffffff1690602001909291905050506103a8565b604051808215151515815260200191505060405180910390f35b34801561017057600080fd5b5061017961044b565b005b34801561018757600080fd5b506101906104dc565b005b34801561019e57600080fd5b506101d3600480360381019080803573ffffffffffffffffffffffffffffffffffffffff1690602001909291905050506104fe565b604051808381526020018281526020019250505060405180910390f35b3480156101fc57600080fd5b5061021b60048036038101908080359060200190929190505050610522565b005b61023b60048036038101908080359060200190929190505050610769565b005b34801561024957600080fd5b506102526108c5565b604051808273ffffffffffffffffffffffffffffffffffffffff1673ffffffffffffffffffffffffffffffffffffffff16815260200191505060405180910390f35b3480156102a057600080fd5b506102a96108ea565b6040518082815260200191505060405180910390f35b3480156102cb57600080fd5b506102d46108f0565b6040518082815260200191505060405180910390f35b3480156102f657600080fd5b50610315600480360381019080803590602001909291905050506108f6565b604051808273ffffffffffffffffffffffffffffffffffffffff1673ffffffffffffffffffffffffffffffffffffffff16815260200191505060405180910390f35b34801561036357600080fd5b5061036c610934565b6040518082815260200191505060405180910390f35b60006001600a4381151561039257fe5b0601905061039f81610522565b50565b60035481565b600080600090505b600580549050811015610440578273ffffffffffffffffffffffffffffffffffffffff166005828154811015156103e357fe5b9060005260206000200160009054906101000a900473ffffffffffffffffffffffffffffffffffffffff1673ffffffffffffffffffffffffffffffffffffffff1614156104335760019150610445565b80806001019150506103b0565b600091505b50919050565b6000809054906101000a900473ffffffffffffffffffffffffffffffffffffffff1673ffffffffffffffffffffffffffffffffffffffff163373ffffffffffffffffffffffffffffffffffffffff1614156104da576000809054906101000a900473ffffffffffffffffffffffffffffffffffffffff1673ffffffffffffffffffffffffffffffffffffffff16ff5b565b60006005816104eb919061093a565b5060006002819055506000600381905550565b60066020528060005260406000206000915090508060000154908060010154905082565b61052a610966565b6000806000806000809450600093505b6005805490508410156106835760058481548110151561055657fe5b9060005260206000200160009054906101000a900473ffffffffffffffffffffffffffffffffffffffff16925086600660008573ffffffffffffffffffffffffffffffffffffffff1673ffffffffffffffffffffffffffffffffffffffff16815260200190815260200160002060010154141561061c578286866064811015156105dc57fe5b602002019073ffffffffffffffffffffffffffffffffffffffff16908173ffffffffffffffffffffffffffffffffffffffff168152505084806001019550505b600660008473ffffffffffffffffffffffffffffffffffffffff1673ffffffffffffffffffffffffffffffffffffffff168152602001908152602001600020600080820160009055600182016000905550506106766104dc565b838060010194505061053a565b6000600581610692919061093a565b5060646002548115156106a157fe5b049150600090505b8481101561076057600073ffffffffffffffffffffffffffffffffffffffff1686826064811015156106d757fe5b602002015173ffffffffffffffffffffffffffffffffffffffff1614151561075357858160648110151561070757fe5b602002015173ffffffffffffffffffffffffffffffffffffffff166108fc839081150290604051600060405180830381858888f19350505050158015610751573d6000803e3d6000fd5b505b80806001019150506106a9565b50505050505050565b610772336103a8565b15151561077e57600080fd5b600181101580156107905750600a8111155b151561079b57600080fd5b60015434101515156107ac57600080fd5b34600660003373ffffffffffffffffffffffffffffffffffffffff1673ffffffffffffffffffffffffffffffffffffffff1681526020019081526020016000206000018190555080600660003373ffffffffffffffffffffffffffffffffffffffff1673ffffffffffffffffffffffffffffffffffffffff1681526020019081526020016000206001018190555060036000815480929190600101919050555060053390806001815401808255809150509060018203906000526020600020016000909192909190916101000a81548173ffffffffffffffffffffffffffffffffffffffff021916908373ffffffffffffffffffffffffffffffffffffffff160217905550503460026000828254019250508190555050565b6000809054906101000a900473ffffffffffffffffffffffffffffffffffffffff1681565b60015481565b60045481565b60058181548110151561090557fe5b906000526020600020016000915054906101000a900473ffffffffffffffffffffffffffffffffffffffff1681565b60025481565b81548183558181111561096157818360005260206000209182019101610960919061098a565b5b505050565b610c8060405190810160405280606490602082028038833980820191505090505090565b6109ac91905b808211156109a8576000816000905550600101610990565b5090565b905600a165627a7a72305820c47d7b32e64b757f754b7617a2b7040abbf8f2051b262e2ce10529060e7b4f280029",
  "source": "pragma solidity ^0.4.20;\r\n\r\ncontract Casino {\r\n   address public owner;\r\n   uint256 public minimumBet;\r\n   uint256 public totalBet;\r\n   uint256 public numberOfBets;\r\n   uint256 public maxAmountOfBets = 100;\r\n   address[] public players;\r\n   struct Player {\r\n      uint256 amountBet;\r\n      uint256 numberSelected;\r\n   }\r\n   // The address of the player and => the user info\r\n   mapping(address => Player) public playerInfo;\r\n   function() public payable {}\r\n\r\n   constructor(uint256 _minimumBet) public {\r\n      owner = msg.sender;\r\n      if(_minimumBet != 0 ) minimumBet = _minimumBet;\r\n   }\r\n   function kill() public {\r\n      if(msg.sender == owner) selfdestruct(owner);\r\n   }\r\n   function checkPlayerExists(address player) public constant returns(bool){\r\n      for(uint256 i = 0; i < players.length; i++){\r\n         if(players[i] == player) return true;\r\n      }\r\n      return false;\r\n   }\r\n   // To bet for a number between 1 and 10 both inclusive\r\n   function bet(uint256 numberSelected) public payable {\r\n      require(!checkPlayerExists(msg.sender));\r\n      require(numberSelected >= 1 && numberSelected <= 10);\r\n      require(msg.value >= minimumBet);\r\n      playerInfo[msg.sender].amountBet = msg.value;\r\n      playerInfo[msg.sender].numberSelected = numberSelected;\r\n      numberOfBets++;\r\n      players.push(msg.sender);\r\n      totalBet += msg.value;\r\n   }\r\n   // Generates a number between 1 and 10 that will be the winner\r\n   function generateNumberWinner() public {\r\n      uint256 numberGenerated = block.number % 10 + 1; // This isn't secure\r\n      distributePrizes(numberGenerated);\r\n   }\r\n   function resetData() public {\r\n     players.length = 0; // Delete all the players array\r\n     totalBet = 0;\r\n     numberOfBets = 0;\r\n   }\r\n   // Sends the corresponding ether to each winner depending on the total bets\r\n   function distributePrizes(uint256 numberWinner) public {\r\n      address[100] memory winners; // We have to create a temporary in memory array with fixed size\r\n      uint256 count = 0; // This is the count for the array of winners\r\n      for(uint256 i = 0; i < players.length; i++){\r\n         address playerAddress = players[i];\r\n         if(playerInfo[playerAddress].numberSelected == numberWinner){\r\n            winners[count] = playerAddress;\r\n            count++;\r\n         }\r\n         delete playerInfo[playerAddress]; // Delete all the players\r\n         resetData();\r\n      }\r\n      players.length = 0; // Delete all the players array\r\n      uint256 winnerEtherAmount = totalBet / winners.length; // How much each winner gets\r\n      for(uint256 j = 0; j < count; j++){\r\n         if(winners[j] != address(0)) // Check that the address in this fixed array is not empty\r\n         winners[j].transfer(winnerEtherAmount);\r\n      }\r\n   }\r\n}\r\n",
  "sourcePath": "/mnt/c/Users/mathi/Desktop/dapp/casino-ethereum/contracts/Casino.sol",
  "compiler": {
    "name": "solc",
    "version": "0.4.24+commit.e67f0147.Emscripten.clang"
  },
  "schemaVersion": "2.0.1",
  "updatedAt": "2018-09-25T08:56:46.969Z"
}